:020000040000fa
:080000000002040000000000f2
:020000040000fa
:04000800c803000029
:020000040000fa
:04000c0046030000a7
:020000040000fa
:040010008803000061
:020000040000fa
:04001400660300007f
:020000040000fa
:04001800a803000039
:020000040000fa
:04001c00c803000015
:020000040000fa
:04002000c803000011
:020000040000fa
:04002400c80300000d
:020000040000fa
:04002800c803000009
:020000040000fa
:04002c00c803000005
:020000040000fa
:04003000c803000001
:020000040000fa
:04003400c8030000fd
:020000040000fa
:04003800c8030000f9
:020000040000fa
:04003c00c8030000f5
:020000040000fa
:04004000c8030000f1
:020000040000fa
:0400440010030000a5
:020000040000fa
:04004800c8030000e9
:020000040000fa
:04004c00c8030000e5
:020000040000fa
:04005000c8030000e1
:020000040000fa
:04005400c8030000dd
:020000040000fa
:04005800c8030000d9
:020000040000fa
:04005c00c8030000d5
:020000040000fa
:04006000c8030000d1
:020000040000fa
:04006400c8030000cd
:020000040000fa
:04006800c8030000c9
:020000040000fa
:04006c00c8030000c5
:020000040000fa
:04007000c8030000c1
:020000040000fa
:04007400c8030000bd
:020000040000fa
:04007800c8030000b9
:020000040000fa
:04007c00c8030000b5
:020000040000fa
:04008000c8030000b1
:020000040000fa
:04008400c8030000ad
:020000040000fa
:04008800c8030000a9
:020000040000fa
:04008c00c8030000a5
:020000040000fa
:04009000c8030000a1
:020000040000fa
:04009400c80300009d
:020000040000fa
:04009800c803000099
:020000040000fa
:04009c00c803000095
:020000040000fa
:0400a000c803000091
:020000040000fa
:0400a400c80300008d
:020000040000fa
:0400a800c803000089
:020000040000fa
:0400ac00c803000085
:020000040000fa
:0400b000c803000081
:020000040000fa
:0400b400c80300007d
:020000040000fa
:0400b800c803000079
:020000040000fa
:0400bc00c803000075
:020000040000fa
:0400c000c803000071
:020000040000fa
:0400c400c80300006d
:020000040000fa
:0400c800c803000069
:020000040000fa
:0400cc00c803000065
:020000040000fa
:0400d000c803000061
:020000040000fa
:0400d400c80300005d
:020000040000fa
:0400d800c803000059
:020000040000fa
:0400dc00c803000055
:020000040000fa
:0400e000c803000051
:020000040000fa
:0400e400c80300004d
:020000040000fa
:0400e800c803000049
:020000040000fa
:0400ec00c803000045
:020000040000fa
:0400f000c803000041
:020000040000fa
:0400f400c80300003d
:020000040000fa
:0400f800c803000039
:020000040000fa
:0400fc00c803000035
:020000040000fa
:04010000c803000030
:020000040000fa
:04010400c80300002c
:020000040000fa
:04010800c803000028
:020000040000fa
:04010c00c803000024
:020000040000fa
:04011000c803000020
:020000040000fa
:04011400c80300001c
:020000040000fa
:04011800c803000018
:020000040000fa
:04011c00c803000014
:020000040000fa
:04012000c803000010
:020000040000fa
:04012400c80300000c
:020000040000fa
:04012800c803000008
:020000040000fa
:04012c00c803000004
:020000040000fa
:04013000c803000000
:020000040000fa
:04013400c8030000fc
:020000040000fa
:04013800c8030000f8
:020000040000fa
:04013c00c8030000f4
:020000040000fa
:04014000c8030000f0
:020000040000fa
:04014400c8030000ec
:020000040000fa
:04014800c8030000e8
:020000040000fa
:04014c00c8030000e4
:020000040000fa
:04015000c8030000e0
:020000040000fa
:04015400c8030000dc
:020000040000fa
:04015800c8030000d8
:020000040000fa
:04015c00c8030000d4
:020000040000fa
:04016000c8030000d0
:020000040000fa
:04016400c8030000cc
:020000040000fa
:04016800c8030000c8
:020000040000fa
:04016c00c8030000c4
:020000040000fa
:04017000c8030000c0
:020000040000fa
:04017400c8030000bc
:020000040000fa
:04017800c8030000b8
:020000040000fa
:04017c00c8030000b4
:020000040000fa
:04018000c8030000b0
:020000040000fa
:04018400c8030000ac
:020000040000fa
:04018800c8030000a8
:020000040000fa
:04018c00c8030000a4
:020000040000fa
:04019000c8030000a0
:020000040000fa
:04019400c80300009c
:020000040000fa
:04019800c803000098
:020000040000fa
:04019c00c803000094
:020000040000fa
:04020800c803000027
:020000040000fa
:04020c0046030000a5
:020000040000fa
:04021000880300005f
:020000040000fa
:04021400660300007d
:020000040000fa
:04021800a803000037
:020000040000fa
:04021c00c803000013
:020000040000fa
:04022000c80300000f
:020000040000fa
:04022400c80300000b
:020000040000fa
:04022800c803000007
:020000040000fa
:04022c00c803000003
:020000040000fa
:04023000c8030000ff
:020000040000fa
:04023400c8030000fb
:020000040000fa
:04023800c8030000f7
:020000040000fa
:04023c00c8030000f3
:020000040000fa
:04024000c8030000ef
:020000040000fa
:0402440010030000a3
:020000040000fa
:04024800c8030000e7
:020000040000fa
:04024c00c8030000e3
:020000040000fa
:04025000c8030000df
:020000040000fa
:04025400c8030000db
:020000040000fa
:04025800c8030000d7
:020000040000fa
:04025c00c8030000d3
:020000040000fa
:04026000c8030000cf
:020000040000fa
:04026400c8030000cb
:020000040000fa
:04026800c8030000c7
:020000040000fa
:04026c00c8030000c3
:020000040000fa
:04027000c8030000bf
:020000040000fa
:04027400c8030000bb
:020000040000fa
:04027800c8030000b7
:020000040000fa
:04027c00c8030000b3
:020000040000fa
:04028000c8030000af
:020000040000fa
:04028400c8030000ab
:020000040000fa
:04028800c8030000a7
:020000040000fa
:04028c00c8030000a3
:020000040000fa
:04029000c80300009f
:020000040000fa
:04029400c80300009b
:020000040000fa
:04029800c803000097
:020000040000fa
:04029c00c803000093
:020000040000fa
:0402a000c80300008f
:020000040000fa
:0402a400c80300008b
:020000040000fa
:0402a800c803000087
:020000040000fa
:0402ac00c803000083
:020000040000fa
:0402b000c80300007f
:020000040000fa
:0402b400c80300007b
:020000040000fa
:0402b800c803000077
:020000040000fa
:0402bc00c803000073
:020000040000fa
:0402c000c80300006f
:020000040000fa
:0402c400c80300006b
:020000040000fa
:0402c800c803000067
:020000040000fa
:0402cc00c803000063
:020000040000fa
:0402d000c80300005f
:020000040000fa
:0402d400c80300005b
:020000040000fa
:0402d800c803000057
:020000040000fa
:0402dc00c803000053
:020000040000fa
:0402e000c80300004f
:020000040000fa
:0402e400c80300004b
:020000040000fa
:0402e800c803000047
:020000040000fa
:0402ec00c803000043
:020000040000fa
:0402f000c80300003f
:020000040000fa
:0402f400c80300003b
:020000040000fa
:0402f800c803000037
:020000040000fa
:0402fc00c803000033
:020000040000fa
:04030000c80300002e
:020000040000fa
:04030400c80300002a
:020000040000fa
:04030800c803000026
:020000040000fa
:04030c00c803000022
:020000040000fa
:04031000c80300001e
:020000040000fa
:04031400c80300001a
:020000040000fa
:04031800c803000016
:020000040000fa
:04031c00c803000012
:020000040000fa
:04032000c80300000e
:020000040000fa
:04032400c80300000a
:020000040000fa
:04032800c803000006
:020000040000fa
:04032c00c803000002
:020000040000fa
:04033000c8030000fe
:020000040000fa
:04033400c8030000fa
:020000040000fa
:04033800c8030000f6
:020000040000fa
:04033c00c8030000f2
:020000040000fa
:04034000c8030000ee
:020000040000fa
:04034400c8030000ea
:020000040000fa
:04034800c8030000e6
:020000040000fa
:04034c00c8030000e2
:020000040000fa
:04035000c8030000de
:020000040000fa
:04035400c8030000da
:020000040000fa
:04035800c8030000d6
:020000040000fa
:04035c00c8030000d2
:020000040000fa
:04036000c8030000ce
:020000040000fa
:04036400c8030000ca
:020000040000fa
:04036800c8030000c6
:020000040000fa
:04036c00c8030000c2
:020000040000fa
:04037000c8030000be
:020000040000fa
:04037400c8030000ba
:020000040000fa
:04037800c8030000b6
:020000040000fa
:04037c00c8030000b2
:020000040000fa
:04038000c8030000ae
:020000040000fa
:04038400c8030000aa
:020000040000fa
:04038800c8030000a6
:020000040000fa
:04038c00c8030000a2
:020000040000fa
:04039000c80300009e
:020000040000fa
:04039400c80300009a
:020000040000fa
:04039800c803000096
:020000040000fa
:04039c00c803000092
:020000040000fa
:100400006fa920000eff27000e01880000000000e9
:10041000000020000000e000020032000001200087
:100420002002880014000700db0007000000e00045
:1004300003003a0080bb20000100200002003700ca
:100440000000200001002000810f70000100320038
:1004500014000700000020000000e000020032004d
:100460000000020000000000780c02000000000004
:100470000040da000000fe004440a90020002000f7
:100480000000e000030032000020200090018800fe
:100490004440a800000006008a1f78008b1f7800e7
:1004a00000000600a1028800800478000000eb0034
:1004b0001f003700e284440054a0b4009905ba003c
:1004c000e284440054a0b4009906ba00e2844400d7
:1004d00054a0b4000006eb00476fde00fd07b20039
:1004e000ae018800636ce10003003a00eaff0700f8
:1004f0000000eb000e003700606ce10008003a00dd
:10050000004deb000a05e800020039003420ec0041
:100510000af0a0008b05e900f9ff3e000400370057
:100520006168e100010032000086eb000b0007006b
:1005300019c7ba001905ba000e04e00003003a001a
:100540000a00e000dbff3a0000000600fe07b200f0
:10055000ae0288008a047800f5ff37000cd0a300b3
:10056000e20f4d001c00390089027800354dba00b9
:100570000a05e800020039003420ec000af0a0006f
:100580008b05e9000f003200254dba000a05e8008e
:10059000020039003420ec000af0a0008b05e900cd
:1005a000080032000c00e0000600320015cdba0051
:1005b0000a05e800020039003420ec000af0a0002f
:1005c0008b05e9008984e80054a0b4000b00e0002a
:1005d000e2ff3a00000006009902ba00055d7800cb
:1005e0008b05e900f7ff3200c82ade00055d7800c0
:1005f0008b05e900f3ff32000c00e000f1ff320050
:1006000019ddba00eeff3700e40a04000000000024
:10061000440c0400000000003e0c04000000000038
:100620003600f800809fbe00829fbe00849fbe00ff
:10063000869fbe000000fa00404080000000e000fd
:1006400002003200404080000000010050a920005c
:10065000104078008040e80050a920000148780050
:1006600040a9200011c0b3000148780084e0a9002f
:100670000080fa004f03be004f02be004f01be00d3
:100680004f00be003600f900004006003600f800ba
:10069000809fbe00829fbe00849fbe00869fbe00da
:1006a0000000fa008020a9000000eb00840407008d
:1006b0000080fa004f03be004f02be004f01be0093
:1006c0004f00be003600f900004006003600f8007a
:1006d000809fbe00829fbe00849fbe00869fbe009a
:1006e0000000fa007b0407008040a90010002000f1
:1006f000730407000080fa004f03be004f02be00e3
:100700004f01be004f00be003600f9000040060059
:100710003600f800809fbe00829fbe00849fbe000e
:10072000869fbe000000fa008060a9002000200023
:10073000630407000080fa004f03be004f02be00b2
:100740004f01be004f00be003600f9000040060019
:100750003600f800809fbe00829fbe00849fbe00ce
:10076000869fbe000000fa008080a90030002000b3
:10077000530407000080fa004f03be004f02be0082
:100780004f01be004f00be003600f90000400600d9
:100790000040da000000fe00000005008001780043
:1007a00002003700b15978000201e9000200e000c0
:1007b000fcff3a0000000600889fbe008a9fbe0032
:1007c000800478000200e0005a0032000140780006
:1007d000814c780082814400f1f99f00e20f5100c2
:1007e0005400360091449800a1449800e1f99f001c
:1007f000d1f99f00e60f51004e003600b144980039
:10080000c1f99f00e80f51004a0036000905ea00cf
:10081000630565000a8444000a055100c1ff2f00ea
:10082000010565000080fb008000eb001210200035
:100830001310200043000700008cbe000a01440092
:1008400060b99f0071b99f00e80f5500390036006c
:100850002004980031049800400498005104980046
:1008600020b99f0031b99f0040b99f0051b99f0046
:10087000f80f55002f0036006004980071049800ae
:10088000000c9800110c9800200c9800310c980076
:10089000400c9800510c980020b19f0031b19f008e
:1008a00040b19f0051b19f0060b19f0071b19f00a6
:1008b00000b99f0011b99f006401640078014100f4
:1008c00002044400020555006011b8000203be0096
:1008d0000002be000403be006022b80000007200e7
:1008e0008180720002017300838173000f00370062
:1008f00008027800009abe00029abe00009abe006c
:100900000292be00000c9800110c9800220c980076
:10091000330c9800400c9800510c9800620c980021
:10092000730c98000a02b1000802b000ff0f5500d6
:10093000efff3e00090078004f05be004f04be00e7
:1009400000000600020ab900001bb9000200b8004e
:0c0950008100420081004300000006000e
:020000040000fa
:04095c000100000096
:020000040000fa
:100960000400fa008e80e800800878000000eb00a8
:10097000000f78000e80e8001000780021002000b1
:100980000108780020002000000f78001e00780089
:100990000080fa00000006000400fa008e80e800e3
:1009a000800878000000eb00000f78000e80e8005f
:1009b0001000780010007800e20f500007003a00a5
:1009c0000e80e80010007800110020000108780077
:1009d00010002000000f7800020037000000eb003c
:1009e000000f78001e0078000080fa00000006006a
:1009f0000800fa00000f78000e80e8000108780077
:100a00006400470002487800660047000308780049
:100a10009e0078000e80e800900878001e007800a4
:100a200064004000e4004700114878006600470079
:100a3000900078001e0078000080e800010878002f
:100a40001e0078008000eb0066004000010878007e
:100a50001e00780064004000104078000080fb0019
:100a60000000ea00800078001e0078006800400066
:100a7000010878001e0078008000eb006a0040004a
:100a8000010878000080fa00000006000400fa0067
:100a90008e80e800800878000e80e8001000780062
:100aa0006a004000100078000000e00003003a00f7
:100ab00010c0b300004f7800020037000040eb0088
:100ac000004f78001e4078000080fa000000060009
:100ad0000400fa008e80e800800878000e80e800ac
:100ae000100078006a004000900078000e80e80056
:100af0001000780010007800808f500003003a004a
:100b000010c0b300004f7800020037000040eb0037
:100b1000004f78001e4078000080fa0000000600b8
:100b20000200fa00000f78001e0078006a00400002
:100b3000100078000080fa00000006000600fa00ad
:100b40000e81e80000097800640047000108780081
:100b50000e80e80010007800ddff07000004e000d0
:100b600048003a000e80e80010007800680040005d
:100b7000100178000e80e800100078001000780066
:100b80008000e9000e80e80010007800640040005a
:100b9000104078000080fb000088b9000000780059
:100ba000800f51000b003a000e80e8001000780022
:100bb00064004000104078000080fb000000ea0064
:100bc000800078000e80e800100078006800400087
:100bd000010878000e80e8001000780068004000ee
:100be000900078000e80e80010007800640040005b
:100bf000104078000080fb00808040000e80e800fc
:100c00001000780068004000010878000e80e800bd
:100c10001000780064004000104078008080fb00e5
:100c20000e80e800100078000080e80010017800d5
:100c30000e80e80010007800680040001000780086
:100c40000000410001017800e400470091007800b5
:100c5000d2fe07000e80e800100078006a00400015
:100c6000100078008000e8000e80e8001000780096
:100c70006a0040000108780010c0b300004f7800ff
:100c8000020037000040eb00004f78001e40780063
:100c90000080fa00000006000600fa000e81e8005d
:100ca0000009780064004700010878000e80e80021
:100cb000100078006a004000100078000000e0009a
:100cc000530032000e80e8001000780064004000fd
:100cd000104078008080fb000e80e8001000780053
:100ce0000080e800100178000e80e8001000780015
:100cf000660040001000780000004100010178000b
:100d0000800078006400470010007800a3fe070010
:100d10000e80e80010007800640040001040780069
:100d20008080fb000e80e800100078000080e80062
:100d3000100178000e80e800100078006600400086
:100d40001000780000004100010178008000eb00f5
:100d500099fe07000e80e800100078006600400051
:100d6000900078000e80e8001000780064004000d9
:100d7000104078000080fb00808040000e80e8007a
:100d80001000780066004000010878000e80e8003e
:100d90001000780066004000100178000e80e80026
:100da00010007800900078000e80e80010007800b5
:100db00064004000104078000080fb000088b9000b
:100dc00000007800800f5100050039000e80e80017
:100dd000100078008000eb006600400001087800f9
:100de0000e80e800100078006a00400010007800d3
:100df0008000e9000e80e800100078006a004000e2
:100e00000108780010c0b300004f780002003700de
:100e10000040eb00004f78001e4078000080fa0090
:100e2000000006000000fa002040800031408000f1
:100e30000080fa00000006000c00fa00680147007c
:100e40000089be00f7ff0700640147000089be006b
:100e5000640047001001be00680047001000be009b
:100e6000800f5100818f590007003900640047004e
:100e70001001be00680047001000be00001f5100b6
:100e8000019759000a003700640047001001be00b6
:100e9000680047001000be0000005100818059002a
:100ea0000081eb008081eb00021f400003974800a7
:100eb0001e00be000080fa00000006000600fa00d6
:100ec000000f78000e80e8000288be001e00780047
:100ed0008000eb000080e80001087800d1ff0700e7
:100ee0001e017800640141000089be001e007800e8
:100ef000680040008e80e8003118780021107800ea
:100f00009e00780010c0b300804878000080fa008e
:100f1000000006000200fa00000f78009e00780032
:100f20000040eb00804878000080fa0000000600d6
:100f30000200fa00000f78001e00780010407800d0
:100f4000e14f500013003a001e007800640040009a
:100f50001000be00b8ff07000001be001e007800b0
:100f6000680040001000be00800f5100818f5900c2
:100f70000c0039009e0078000040eb0080487800ab
:100f80001e007800110020000080e80001087800b1
:100f9000040037001e007800210020000080e800d7
:100fa000010878001e0078000080e800100078003a
:100fb0000080fa00000006000a00fa00e80047007e
:100fc0008008780097ff0700640147000089be0091
:100fd0006800470010007800640040001001be0067
:100fe000640047001000be00800f5100818f59003f
:100ff00009003e00680047001000780064004000cf
:101000001000be00640147001201be00001f510025
:10101000019759000c003700680047001000780065
:10102000640040001000be00640147001201be00d1
:1010300000005100818059000081eb008081eb00ad
:10104000021f4000039748001e00be000080fa0007
:10105000000006000600fa00e4004700800878005f
:101060006400470010007800640040001000be00db
:1010700071ff07000001be00640047001000780007
:10108000680040001000be00800f5100818f5900a1
:10109000030039006000b800008fbe000c0037006c
:1010a0006400470010007800640040001000be009b
:1010b00061ff07000001be006400470010007800d7
:1010c000680040001000be00001f51000197590049
:1010d0001e00be000080fa00000006000200fa00b8
:1010e0000040eb00004f78000040eb00004f78001c
:1010f000120037001e80fb006a00b9000000780073
:101100008080e800a0a82000008040001000780047
:101110000000e000080032001e80fb006a00b900f9
:10112000000078008080e800a0a820000080400037
:1011300010007800000001001e4fe8001e80fb0038
:1011400071258400810f5000eaff39000080fa0009
:10115000000006000200fa000040eb00004f78009b
:101160000040eb00004f78003b0037001e81fb0081
:101170006a10b90000007800e6004000a0a8200036
:1011800000804000100078008001e8006a10b9007b
:101190008000780000a9200000804000030878004b
:1011a0001e80fb006a00b90000007800e6004000e5
:1011b000a0a8200000804000100178001e80fb00e5
:1011c0006a00b90000007800e8004000a0a82000f4
:1011d0000080400010007800800f51001600390098
:1011e0001e80fb006a00b9008000780000a9200082
:1011f000008040008000eb00010878001e80fb00aa
:101200006a00b90080007800e0a82000008040005b
:1012100011002000010878001e80fb006a00b90060
:1012200080007800a0a82000008040001000780016
:1012300000000100070037001e80fb006a00b900b3
:1012400080007800e0a82000008040008000eb00d3
:10125000010878001e4fe8001e80fb007125840005
:10126000810f5000c1ff39000080fa000000060025
:101270000000fa00704080000000e8007040880024
:10128000704080000000e000020032000e28ef00f5
:101290000c28ef000080fa00000006000000fa00b1
:1012a000204080003140800061004000e080480024
:1012b00020408800314088000080fa0000000600cd
:1012c0000000fa0085ff0700010037000000000061
:1012d000604080000000e000fcff3a009dff070036
:1012e0001000200060408800f9ff37000000fa007d
:1012f000dfff0700e9ff0700400007000080fa0059
:10130000000006000800fa00000f78000e80e800d8
:101310000288be0066004700010878001e007800c1
:101320006c00b9008000780020812000008040001f
:1013300011c0b300014878001e0078006c00b900ad
:101340008000780040812000008140006000b800eb
:101350000089be001e0078006c00b9008000780093
:1013600080812000008040008e80e80031187800e5
:10137000211078001e0078006c00b9008000780011
:10138000c081200000804000e6004700110878007e
:101390000080fa00000006000200fa00004f78000a
:1013a0001e80fb006c00b9008000780020812000c6
:1013b000008040008040eb00014878001e80fb0068
:1013c0006c00b9008000780040812000008140005e
:1013d0006000b8000089be001e80fb006c00b900f0
:1013e0008000780080812000008140006000b8000b
:1013f0000089be000080fa00000006000200fa002a
:101400000000eb00000f78003d0037001e00780060
:101410006c00b9008000780020812000008040002e
:1014200010407800e14f500034003a001e00780070
:101430006c00b900000078008080e8002081200066
:10144000008040001000be0061004000e0804800c5
:101450001e0178006c11b9008201780042812000e1
:10146000028141000089be001e0078006c00b900b6
:10147000000078008080e80020812000008040008b
:101480001001be001e0078006c00b900000078005a
:10149000e600400020812000008040001000be00d7
:1014a000800f5100818f5900140039001e00780010
:1014b00000407800b8ff07001e0078006c00b900fb
:1014c00000007800ea0040002081200000804000f9
:1014d000100078000000e000080032001e007800d4
:1014e0006c00b90000007800ea0040002081200074
:1014f0000080400010007800000001001e0fe8008e
:10150000100320009e007800808f5000bfff36003f
:101510000080fa00000006000000fa000621ef003b
:10152000002720006008880000012800800888004b
:10153000404080000000e00002003a0040ae200081
:101540002500070084e0a90094e0a80040a920003d
:101550008040eb00014878000080fa00000006009f
:101560000200fa00000f78009e00780061088800f1
:1015700040a920008040eb00014878000080fa007c
:10158000000006000000fa00600880000080fa00f9
:10159000000006000200fa00000f78009e007800ac
:1015a0003108880040a920008040eb000148780005
:1015b0000080fa00000006000000fa0030088000f9
:1015c0000080fa00000006000000fa00ce000700cc
:1015d0000080fa00000006000200fa00000f780008
:1015e00094e0a9009e0078004140880094e0a800a3
:1015f0000080fa00000006000000fa0040a9200068
:101600008040eb000148780094e0a80011e1a800b8
:101610000080fa00000006000000fa0011e1a900b5
:1016200094e0a9000080fa00000006000200fa0021
:1016300040a92000104f78001e4078000004e00010
:101640000300320040a920008040eb0001487800f0
:101650001e4078000080fa00000006000000fa003a
:1016600050a92000104078000080fb000080fa00a4
:10167000000006000000fa0050a920008040eb00a6
:10168000014878000080fa00000006000000fa001f
:10169000c422ef00cc22ef00d422ef00dc22ef00c6
:1016a000e422ef00ec22ef00f422ef00e06f2c00c8
:1016b000001688000080eb0040168800e00127003b
:1016c000801688000080eb00c0168800f03f2000e4
:1016d00000178800f013230040178800f03c2f000b
:1016e000801788005620ef005820ef005a20ef00a6
:1016f0005c20ef005e20ef006020ef006e20ef0026
:101700007020ef007220ef007420ef007620ef00d1
:101710007820ef00c622ef00ce22ef00d622ef00a5
:10172000de22ef00e622ef00ee22ef00f622ef00cd
:10173000006c200000278800f0f32f00102788009d
:101740000001260020278800000c20003027880098
:10175000002020004027880010002000502788002b
:10176000003c2000602788000080fa00000006008e
:020000040000fa
:10177000940a000002000000800000000808000039
:1017800002000000800000006a0a00002000000043
:10179000800000000a080000020000008200000033
:1017a000ffff00000c0800000200000082000000a3
:1017b000010000000e080000020000008000000090
:1017c000120800005802000080000000000800001d
:1017d000040000008000000010080000020000006b
:1017e00082000000ffff00008a0a00000a000000db
:1017f00082000000440c3e000c0000000000c80005
:101800000000000004080000040000008000000048
:0418100000000000d4
:020000040000fa
:101814000000fa0000102300203a88004827ef0057
:101824007027ef007227ef007427ef007627ef0090
:101834007827ef007a27ef0022002000800720009d
:10184400a109200033742000804978008149780080
:10185400824978000001eb0060042000710520003b
:1018640023742000804978008149780082497800f7
:101874000080fa00000006000000fa000080fa0070
:10188400000006000000fa002016800000407800e6
:10189400614060000004a200614060000080fb0021
:1018a40061006000211680000100a10001007000a9
:1018b400201688000080fa00000006000200fa00ea
:1018c400000f78009e00780051408800ffff370029
:1018d4000000fa00a0a620008007780020a82000bd
:1018e400000188000080fa00000006000000fa00f1
:1018f4001000070071fe0700100020000080fa00ad
:10190400000006000000fa0077fe07000080fa00dd
:10191400000006000000fa0031058000f0ff2800f6
:101924000080600000c0a000300588000080fa003c
:10193400000006000000fa0053ff0700f5ff07004f
:10194400b3ff0700f3fe07000080fa000000060062
:020000040000fa
:020000040005f5
:0457f400fffc0000b6
:020000040000fa
:020000040005f5
:0457f8005e1a000035
:020000040000fa
:020000040005f5
:0457fc007f3e0000ec
:00000001FF
